:100000000C945D000C9485000C9485000C94850084
:100010000C9485000C9485000C9485000C9485004C
:100020000C9485000C9485000C9485000C9485003C
:100030000C9485000C94DC050C9485000C948500D0
:100040000C9497060C9485000C9495040C94D104A0
:100050000C9485000C9485000C9485000C9485000C
:100060000C9485000C94850000000007000201003C
:100070000003040600000000000000000102040864
:100080001020408001020408102001020408102002
:10009000040404040404040402020202020203032E
:1000A0000303030300000000250028002B000000CC
:1000B0000000240027002A008C0511241FBECFEF6A
:1000C000D8E0DEBFCDBF11E0A0E0B1E0E8ECF2E1A6
:1000D00002C005900D92AA31B107D9F711E0AAE14B
:1000E000B1E001C01D92AF3DB107E1F710E0CAEBEE
:1000F000D0E004C02297FE010E945E09C83BD107F0
:10010000C9F70E94EC030C941C070C940000CF92DA
:10011000DF92EF92FF92CF93DF9381E090911A01EB
:10012000911180E080931A01882311F061E001C0F1
:1001300060E08DE00E94DB01C0912301D091240199
:1001400027E836E149E450E4609100017091010133
:1001500080910201909103010E94D70820E030E0D5
:1001600044E353E40E9488076B017C0180911B01EA
:1001700090911C01BE01681B790B882777FD809543
:10018000982F0E9423089B01AC01C701B6010E9471
:10019000D7082DEC3CEC4CE45EE30E9488076093AA
:1001A0001D0170931E0180931F0190932001D09335
:1001B0001C01C0931B01DF91CF91FF90EF90DF9066
:1001C000CF90089560E0809104010E94A30160E057
:1001D00088E00E94A30161E08DE00E94A30161E03C
:1001E0008CE00E94A30140E855E260E070E089E203
:1001F00091E00E940C0540E45DE063E070E080ED7A
:1002000091E00E946C062FEF3FEFA90167E870E0D4
:1002100080ED91E00C947C060F931F93CF93DF93B6
:10022000809104010E941202BC01882777FD80950D
:10023000982F0E94230820E030E040EA50E40E941A
:10024000D70820E030EC4FE754E40E9488078B0188
:10025000D82FC92FCE01402F512F692F782F4093CF
:1002600025015093260160932701709328012AE904
:1002700039E949E950E4FE01602F712F8F2F9E2F3D
:100280000E94D308181614F4109222012DEC3CECB5
:100290004CE850E4FE01602F712F8F2F9C2F0E949D
:1002A000840787FF03C081E08093220180912201AF
:1002B00090912101891759F08093210180912301A8
:1002C0009091240101969093240180932301409101
:1002D0001D0150911E0160911F017091200125E0C8
:1002E00030E089E291E0DF91CF911F910F910C9462
:1002F000D803833069F028F48130A1F0823011F501
:1003000014C08630B1F08730C1F08430D9F404C015
:10031000809180008F7703C0809180008F7D8093D3
:100320008000089584B58F7702C084B58F7D84BD29
:1003300008958091B0008F7703C08091B0008F7DC9
:100340008093B0000895CF93DF9390E0FC01E458D0
:10035000FF4F4491FC01E057FF4F8491882341F106
:1003600090E0880F991FFC01E255FF4F25913491D1
:10037000D9018C559F4FFC0185919491C82FD92F9D
:100380009FB7F8948C91611106C0409584238C939B
:100390008881842308C0623041F4242F2095822371
:1003A0008C938881842B888302C0842B8C939FBF7D
:1003B000DF91CF9108950F931F93CF93DF931F92F7
:1003C000CDB7DEB7282F30E0F901E859FF4F84910F
:1003D000F901E458FF4F1491F901E057FF4F0491E0
:1003E0000023D1F0882321F069830E94790169817B
:1003F000E02FF0E0EE0FFF1FEC55FF4F8591949139
:10040000DC019FB7F8948C91611103C01095812392
:1004100001C0812B8C939FBF0F90DF91CF911F91D3
:100420000F9108958E3008F08E508770209106014C
:1004300040E4249F90011124822B80937C008091C2
:100440007A00806480937A0080917A0086FDFCCFE8
:100450002091780030917900932F80E0AC01422BFD
:100460009A01C9010895CF92DF92EF92FF920F9304
:100470001F93CF93DF936C01EB017A01E60EF71E19
:1004800000E010E00BC06991D601ED91FC91019064
:10049000F081E02DC6010995080F191FCE15DF0563
:1004A00091F7C801DF91CF911F910F91FF90EF90CD
:1004B000DF90CF900895DB010D900020E9F7AD01AA
:1004C00041505109461B570BDC01ED91FC91028014
:1004D000F381E02D0994DC01ED91FC910190F08114
:1004E000E02D09940F931F93CF93DF93EC016DE000
:1004F0000E946B028C016AE0CE010E946B029C019B
:10050000200F311FC901DF91CF911F910F910895E5
:100510004F925F926F927F929F92AF92BF92CF92D3
:10052000DF92EF92FF920F931F93CF93DF93CDB79C
:10053000DEB7A1970FB6F894DEBF0FBECDBF5C014A
:100540006A017B01922E19A281E0821710F08AE0E5
:10055000982E8E010F5D1F4F492C512C612C712C50
:10056000C701B601A30192010E943A098C2D929E07
:1005700080191124015011098A3014F4805D01C0E2
:10058000895CF801808369017A01C114D104E10416
:10059000F10431F7B801C5010E945B02A1960FB6C4
:1005A000F894DEBF0FBECDBFDF91CF911F910F91A9
:1005B000FF90EF90DF90CF90BF90AF909F907F9093
:1005C0006F905F904F900895CF92DF92EF92FF92DD
:1005D0000F931F93CF93DF93EC016A017B012115E9
:1005E000310579F4E881F9810190F081E02D642FE3
:1005F000DF91CF911F910F91FF90EF90DF90CF90FF
:1006000009942A30310519F477FD0EC02AE0B701AC
:10061000A601CE01DF91CF911F910F91FF90EF9036
:10062000DF90CF900C9488026DE20E946B028C01E7
:1006300044275527BA014C195D096E097F092AE044
:10064000CE010E948802080F191FC801DF91CF91C7
:100650001F910F91FF90EF90DF90CF9008957F92C0
:100660008F929F92AF92BF92CF92DF92EF92FF92C2
:100670000F931F93CF93DF938C014A015B01F22EFE
:1006800020E030E0A901C501B4010E94840787FF82
:100690000AC06DE2C8010E946B02EC01B7FAB09487
:1006A000B7F8B09402C0C0E0D0E0E12C60E070E0A8
:1006B00080E09FE307C020E030E040E251E40E9488
:1006C0008807E394EF10F7CF262F372F482F592FA5
:1006D000C501B4010E942007762E872E982EA92EE0
:1006E0000E94F507B62EC72ED82EE92E0E942108AB
:1006F0009B01AC01672D782D892D9A2D0E941F0733
:10070000A62E972E882E792E2AE04B2D5C2D6D2D4E
:100710007E2DC8010E948802C80FD91FFF20B9F1A1
:1007200067E071E0C8010E945B02C80FD91F2FC0AB
:1007300020E030E040E251E46A2D792D882D972D9C
:100740000E94D708762EC72ED82EE92E0E94F007D9
:100750004B01AA2497FCA094BA2C2AE030E0B50102
:10076000A401C8010E94E402C80FD91FC501B40149
:100770000E9423089B01AC01672D7C2D8D2D9E2DA1
:100780000E941F07A62E972E882E792EFA94F1101C
:10079000CFCFCE01DF91CF911F910F91FF90EF90BE
:1007A000DF90CF90BF90AF909F908F907F900895F3
:1007B0000F931F93CF93DF93EC010E942F038C01C3
:1007C000CE010E9472029801280F391FC901DF91E2
:1007D000CF911F910F9108950E94E1060E94E200BF
:1007E000C8ECD4E00E940C012097E1F30E94C804F9
:1007F000F9CFFC0184859585FC01E05CFF4F2081E9
:100800003181FC01EE5BFF4F80819181281B390B08
:100810002F733327C9010895FC0184859585FC0158
:10082000E05CFF4F40815181FC01EE5BFF4F208176
:1008300031814217530741F00190F081E02DE80F1C
:10084000F91F208130E002C02FEF3FEFC90108956A
:10085000FC0184859585FC01E05CFF4F408151815E
:10086000FC01EE5BFF4F208131814217530781F07D
:10087000A081B181A80FB91F8C91208131812F5F98
:100880003F4F2F73332731832083282F30E002C05E
:100890002FEF3FEFC9010895FC0186859785FC0184
:1008A000E05CFF4FDC01AE5BBF4F408151812D9179
:1008B0003C91119742175307C1F70895CF93DF93E7
:1008C000FC0186859785DC01A05CBF4F2D913C9192
:1008D00011972F5F3F4F2F733327EC01CE5BDF4F14
:1008E0004881598124173507D9F30D90BC91A02D6B
:1008F000A80FB91F6C93A685B785A05CBF4F119652
:100900003C932E93A689B7892C9181E090E0058CC9
:1009100002C0880F991F0A94E2F7282B2C9381E0DC
:1009200090E0DF91CF91089508951F920F920FB636
:100930000F9211242F933F934F938F939F93EF9395
:10094000FF934091C6008091CC019091CD0101961A
:100950008F7399272091CE013091CF018217930791
:1009600059F0E091CC01F091CD01E457FE4F408366
:100970009093CD018093CC01FF91EF919F918F9146
:100980004F913F912F910F900FBE0F901F90189590
:1009900089E291E00E94F903892B11F00C949404F0
:1009A00008951F920F920FB60F9211242F933F9329
:1009B0008F939F93EF93FF9320918801309189014A
:1009C00080918A0190918B012817390731F4809129
:1009D000C1008F7D8093C10014C0E0918A01F09125
:1009E0008B01E85BFE4F208180918A0190918B0101
:1009F00001968F73992790938B0180938A0120939E
:100A0000C600FF91EF919F918F913F912F910F9091
:100A10000FBE0F901F901895CF92DF92EF92FF922A
:100A2000CF93DF93EC016A017B01411581EE5807FA
:100A300061057105F9F0EC89FD8981E090E00E8C8B
:100A400002C0880F991F0A94E2F7808360E079E082
:100A50008DE390E0A70196010E943A0921503109E7
:100A6000410951095695479537952795211580E1FC
:100A7000380798F0EC89FD89108260E874E88EE10F
:100A800090E0A70196010E943A09215031094109DD
:100A900051095695479537952795E889F989308307
:100AA000EA89FB892083EE89FF89408181E090E01B
:100AB0009C010A8C02C0220F331F0A94E2F7422BDA
:100AC0004083EE89FF8940819C010B8C02C0220F7C
:100AD000331F0A94E2F7422B4083EE89FF8940815D
:100AE0009C010C8C02C0220F331F0A94E2F7422BA8
:100AF0004083EE89FF8920810D8C02C0880F991FE9
:100B00000A94E2F7809582238083DF91CF91FF9052
:100B1000EF90DF90CF90089510922C0110922B014E
:100B200088EE93E0A0E0B0E080932D0190932E0139
:100B3000A0932F01B09330018DE091E090932A01B2
:100B4000809329018CE891E09093360180933501E0
:100B500088E491E0909338018093370185EC90E030
:100B600090933A018093390184EC90E090933C019A
:100B700080933B0180EC90E090933E0180933D0197
:100B800081EC90E09093400180933F0186EC90E0EF
:100B9000909342018093410184E08093430183E07C
:100BA0008093440187E08093450185E0809346016E
:100BB00081E08093470108951F920F920FB60F9224
:100BC00011242F933F934F935F936F937F938F9352
:100BD0009F93AF93BF93EF93FF93E091D401F09174
:100BE000D5010995FF91EF91BF91AF919F918F91A1
:100BF0007F916F915F914F913F912F910F900FBE19
:100C00000F901F901895FC01A3E0440F551F661F1D
:100C1000771FAA95D1F74115510581E06807710545
:100C200014F481E00EC033E07595679557954795AC
:100C30003A95D1F74115510581E0680771051CF41B
:100C400082E0828332C023E075956795579547957A
:100C50002A95D1F74115510581E06807710514F413
:100C600083E0EFCF92E075956795579547959A95F4
:100C7000D1F74115510581E06807710514F484E04E
:100C8000E0CF82E075956795579547958A95D1F79E
:100C900085E082834115510581E0680771050CF4F8
:100CA00004C04FEF5FEF60E070E08FB78383F8948C
:100CB00051834083509387004093860083818FBF88
:100CC00080918100887F8093810080918100928152
:100CD000892B8093810008951092800020E1209359
:100CE00081000C940306E1E8F0E02081DC0112961B
:100CF0008C91282B208308950F931F93CF93DF931C
:100D0000EC018B01BA01A901141615061606170687
:100D100014F40E9403061D830C8381E080936F000E
:100D2000CE01DF91CF911F910F910C9473061F920A
:100D30000F920FB60F9211242F933F938F939F938F
:100D4000AF93BF938091D6019091D701A091D80124
:100D5000B091D9013091DE01232F2D5F2D3720F482
:100D60000196A11DB11D05C0232F2A570296A11D72
:100D7000B11D2093DE018093D6019093D701A093FB
:100D8000D801B093D9018091DA019091DB01A09153
:100D9000DC01B091DD010196A11DB11D8093DA0146
:100DA0009093DB01A093DC01B093DD01BF91AF9183
:100DB0009F918F913F912F910F900FBE0F901F9099
:100DC0001895789484B5826084BD84B5816084BDB3
:100DD00085B5826085BD85B5816085BDEEE6F0E0B4
:100DE000808181608083E1E8F0E010828081826010
:100DF0008083808181608083E0E8F0E08081816091
:100E00008083E1EBF0E0808184608083E0EBF0E0C0
:100E1000808181608083EAE7F0E080818460808364
:100E2000808182608083808181608083808180680E
:100E300080831092C1000895F8940C946209505870
:100E4000BB27AA270ED075C166D130F06BD120F038
:100E500031F49F3F11F41EF45BC10EF4E095E7FB03
:100E600051C1E92F77D180F3BA176207730784075E
:100E7000950718F071F49EF58FC10EF4E0950B2ED6
:100E8000BA2FA02D0B01B90190010C01CA01A001DC
:100E90001124FF27591B99F0593F50F4503E68F137
:100EA0001A16F040A22F232F342F4427585FF3CF78
:100EB000469537952795A795F0405395C9F77EF449
:100EC0001F16BA0B620B730B840BBAF09150A1F092
:100ED000FF0FBB1F661F771F881FC2F70EC0BA0F18
:100EE000621F731F841F48F4879577956795B795A0
:100EF000F7959E3F08F0B3CF9395880F08F0992798
:100F0000EE0F979587950895D9D008F481E008955C
:100F10000CD00FC107D140F0FED030F021F45F3F7C
:100F200019F0F0C0511139C1F3C014D198F39923CD
:100F3000C9F35523B1F3951B550BBB27AA2762179D
:100F40007307840738F09F5F5F4F220F331F441FE2
:100F5000AA1FA9F333D00E2E3AF0E0E830D091501A
:100F60005040E695001CCAF729D0FE2F27D0660F07
:100F7000771F881FBB1F261737074807AB07B0E846
:100F800009F0BB0B802DBF01FF2793585F4F2AF05C
:100F90009E3F510568F0B6C000C15F3FECF3983E3C
:100FA000DCF3869577956795B795F7959F5FC9F7B9
:100FB000880F911D9695879597F90895E1E0660F42
:100FC000771F881FBB1F621773078407BA0720F0BB
:100FD000621B730B840BBA0BEE1F88F7E095089524
:100FE00004D06894B111D9C00895BCD088F09F573F
:100FF00090F0B92F9927B751A0F0D1F0660F771F65
:10100000881F991F1AF0BA95C9F712C0B13081F044
:10101000C3D0B1E00895C0C0672F782F8827B85F8C
:1010200039F0B93FCCF3869577956795B395D9F7A5
:101030003EF490958095709561957F4F8F4F9F4FAF
:101040000895E89409C097FB3EF4909580957095BB
:1010500061957F4F8F4F9F4F9923A9F0F92F96E904
:10106000BB279395F695879577956795B795F11179
:10107000F8CFFAF4BB0F11F460FF1BC06F5F7F4F16
:101080008F4F9F4F16C0882311F096E911C0772328
:1010900021F09EE8872F762F05C0662371F096E831
:1010A000862F70E060E02AF09A95660F771F881F00
:1010B000DAF7880F9695879597F90895990F0008A4
:1010C000550FAA0BE0E8FEEF16161706E807F9071A
:1010D000C0F012161306E407F50798F0621B730BB5
:1010E000840B950B39F40A2661F0232B242B252B36
:1010F00021F408950A2609F4A140A6958FEF811DD9
:10110000811D089597F99F6780E870E060E0089579
:101110009FEF80EC089500240A941616170618060F
:101120000906089500240A941216130614060506EB
:101130000895092E0394000C11F4882352F0BB0F7C
:1011400040F4BF2B11F460FF04C06F5F7F4F8F4FDF
:101150009F4F089557FD9058440F551F59F05F3F1A
:1011600071F04795880F97FB991F61F09F3F79F0C9
:1011700087950895121613061406551FF2CF46954B
:10118000F1DF08C0161617061806991FF1CF8695CD
:101190007105610508940895E894BB2766277727B1
:1011A000CB0197F908958ADF08F48FEF08950BD0EB
:1011B000C0CFB1DF28F0B6DF18F0952309F0A2CF39
:1011C000A7CF1124EACFC6DFA0F3959FD1F3950FE7
:1011D00050E0551F629FF001729FBB27F00DB11DBB
:1011E000639FAA27F00DB11DAA1F649F6627B00D4B
:1011F000A11D661F829F2227B00DA11D621F739F34
:10120000B00DA11D621F839FA00D611D221F749F41
:101210003327A00D611D231F849F600D211D822F88
:10122000762F6A2F11249F5750408AF0E1F08823CF
:101230004AF0EE0FFF1FBB1F661F771F881F9150DC
:101240005040A9F79E3F510570F05CCFA6CF5F3F9D
:10125000ECF3983EDCF3869577956795B795F7950F
:10126000E7959F5FC1F7FE2B880F911D9695879597
:1012700097F90895A1E21A2EAA1BBB1BFD010DC010
:10128000AA1FBB1FEE1FFF1FA217B307E407F50736
:1012900020F0A21BB30BE40BF50B661F771F881F12
:1012A000991F1A9469F760957095809590959B01A8
:1012B000AC01BD01CF010895EE0FFF1F0590F49121
:0812C000E02D0994F894FFCF22
:1012C800000030410F00012E00000000005E0433D2
:0A12D80002F90328040C044C040082
:00000001FF
